:1000000090EF0FF0F76A140FF66E000EF72209005A
:10001000F5501200313233413435364237383943E6
:100020002A302344496E677265736520656C2070C1
:100030006173730041636365736F000073656E00E5
:10004000636F730074616E007261697A2063756218
:1000500069636100EA6A270EE96EEF500EE0010E57
:10006000016E006A002EFED7012EFBD74A0E006EED
:10007000002EFED700D0EF2EF2D712002E38F00B54
:10008000006E0F0E8C1400108C6E00008C8000D05F
:100090008C9012008350006E00380F0B016E12001E
:1000A0000F0E9514F009956E8C8400008C80000072
:1000B000F1DF01C02EF08C9000008C800000EADFA0
:1000C00001C02DF08C900F0E9514956E2E38006E99
:1000D000F00E001600502D10016E74EF00F0959098
:1000E000959295948C92DCD701C02DF001BEFBD780
:1000F0008C922BB08C8200008C9400008C902C3859
:100100002D6E0F0E2D162DC02EF0B8DF2C500F0BBC
:100110002D6E2E6EB3DF1200280E1A6E0C0E1B6EA3
:10012000010E1C6E060E1D6E8C908C928C940F0E20
:100130009514956E9590959295940F0E276E8ADF83
:10014000010E196E1950030808E3030E2E6E96DF98
:10015000050E276E7FDF192AF5D7020E2E6E8EDF71
:10016000050E276E77DF196A195003080FE3036A3B
:1001700019501A0FE96E000E0320EA6EEFCF1EF041
:100180002B6A1EC02CF0ABDF192AEED7ADEF0FF0B3
:10019000AFEF0FF0282C01D003D0400E296E01D014
:1001A000296A010E275C2926295080092A6E2B6AAC
:1001B0002C6E95DF12002650070A07E00B0A0AE0B2
:1001C000060A10E0020A14E018D0010E276E286E0D
:1001D000E1DF18D02B6A010E2C6E81DF020E276E34
:1001E00039DF10D0010E276E020E286ED3DF0AD041
:1001F0002B6A100E2C6E73DF05D0010E2B6E26C0FD
:100200002CF06DDF12000900F5520CE0F6CF19F06A
:10021000F7CF1AF0F5CF26F0CEDF19C0F6FF1AC0DF
:10022000F7FFF1D71200196A042A0450210855E299
:100230000750FC0F12E2040F72EF01F0FE0E936EF6
:10024000816E0BD0FD0E936E816E07D0FB0E936E08
:10025000816E03D0F70E936E816E05A009D0815098
:10026000F00BF00804E1059006C019F0066A34D0DE
:100270008150F00BF0082BE08150100B02E11A6A5C
:1002800011D08150200B03E1010E1A6E0BD081506A
:10029000400B03E1020E1A6E05D08150800B02E183
:1002A000030E1A6E1A50040DF3501C6A1B6E036A7B
:1002B00007501B24016E1C5003220150F2CF1BF08B
:1002C000F29EA0DE1BBEF28E066E058005D0072AC8
:1002D0000750040801E1076A046AFF0E936E19C013
:1002E00001F01200E824F76AF736FF0FF66E020EEF
:1002F000F7220A00F550FA6E0800F550F96E3C023C
:1003000044024C0254025B50D8B471D0006E5F506E
:10031000D8B46DD0002604E3810E002668E204D034
:100320007F0E005E64E363E05CC063F06051631BBA
:100330005C8E608F5E506203F4CF65F05D506103A8
:10034000F4CF03F0F3CF64F06203F3506527F45069
:100350006423000E03225E506103F3506527F450BE
:100360006423000E026A032202225C506203F350EF
:100370006427F4500322000E02225C506103F35004
:100380000326F4500222000E016A01225E5060032F
:10039000F3506427F4500322000E022201225D5024
:1003A0006003F3500326F4500222000E01225C5039
:1003B0006003F3500226F4500122002A01BE05D04A
:1003C00064370336023601360006000E64AF0AD0E9
:1003D000032A02220122015005E1025003E10350E9
:1003E00001E1002A63BF018E63AF019E04D0006A61
:1003F000016A026A036A12008E0E006E5CC001F090
:100400005BC002F0036A015209E102C001F0026A16
:10041000080E005E015202E1006A08D0D89001BEC9
:1004200004D0023601360006F9D7019E1200800E74
:10043000D8B2601B656B666B5CC064F06051641B76
:100440005B50D8B4DCD0636F006E5F50D8B4E0D09E
:10045000635FD8B481D03DE360C069F0698F61C04B
:1004600068F062C067F0666BD890693368336733B1
:100470006633632FF8D764AF03D06581DDD0659113
:1004800063916589EA6A5E0EE96EE9D0659964BF99
:100490000AD063A113D06933683367336633002A07
:1004A000D8B4C5D00BD069BF0CD0D89066376737A9
:1004B000683769370006D8B4BAD0F5D7658D6BD0E8
:1004C000659D5CC064F05CAE02D0698FA9D0699F65
:1004D000A7D05FC063F05FC000F05B50635F5CC09B
:1004E00069F0698F5DC068F05EC067F0666BD89098
:1004F0006933683367336633632FF8D764AF03D04B
:1005000065839AD065936391658BEA6A620EE96EA2
:10051000A6D0659B64BF0AD063A113D0693368334A
:1005200067336633002AD8B482D00BD069BF0CD0B1
:10053000D89066376737683769370006D8B477D000
:10054000F5D7658F28D0659F60C064F060AF02D09A
:10055000698F66D0699F64D060C069F0698F61C09F
:1005600068F062C067F064AF04D0699F658564D0AD
:100570006595666B6391EA6A5E0EE96E70D064BF42
:100580001CD05CC064F063A106D069336833673364
:100590006633002A4CE066AF0BD0672B09E1682B6D
:1005A00007E1692B05E1693368336733002A3FE0CF
:1005B00065BD86D765BFC7D71CD0800E691B69AFE4
:1005C00004D03AD060C064F00AD05CC064F06953D3
:1005D00006E1685304E1675302E1006A21D069BF74
:1005E00008D0D8906637673768376937002EF7D755
:1005F0001ED064AF02D0698F13D0699F11D05FC045
:1006000000F060C069F061C068F062C067F008D0B7
:100610005BC000F05CC069F05DC068F05EC067F070
:1006200069C001F068C002F067C003F034D0006A0E
:10063000016A026A036A2FD0666B671F681F691F11
:10064000661F662B05E1672B03E1682B01E1692B2F
:1006500065B115D765B356D765B58AD7B3D7EF500F
:10066000672705E3682B03E1692BD8B46381ED525A
:10067000EF50682703E3692BD8B46381ED52EF5044
:10068000EFBE01D0800A6927D8B0638165B9FED674
:1006900065BB3FD774D712002050016A1F5C03E28C
:1006A0001FC000F00CD0006A080E216E1F36003605
:1006B0002050005CD8B0006E0136212EF7D7120012
:1006C000200E1AA8300E1B6E19C000F019AE08D00B
:1006D000001E002A00C019F02D0E1B6E1A8E1A8003
:1006E000015019C01FF0640E206ED6DF00C019F053
:1006F000300E01241C6E19C01FF00A0E206ECCDFD4
:10070000300E00241E6E300E01241D6E1BC000F042
:10071000300E1C5C04E01A821ABE1A8412D01BC070
:100720001CF0200E1B6E300E1D5C04E01A801ABEF9
:100730001A8207D0D8A41A8004E11CC01DF0200E34
:100740001C6E1AB405D01AB206D01AB007D009D060
:100750001BC026F030DD1CC026F02DDD1DC026F0AC
:100760002ADD1EC026F027DD120058C05FF05C5065
:100770005F1A5FAE05D0D894D89058BED8802FD0DD
:1007800058C05FF05BC060F05750605F06E05FAE3E
:1007900026D0D850010AD86E22D05CC060F05850E4
:1007A000605F06E05FAE1BD0D850010AD86E17D04C
:1007B0005DC060F05950605F06E05FAE10D0D85069
:1007C000010AD86E0CD05EC060F05A50605F06E03F
:1007D0005FAE05D0D850010AD86E01D0D890120073
:1007E0003E50D8B4A5D04A6E4250D8B4A1D04A5E8B
:1007F00005E37F0E4A26D8B09BD006D0810E4A5E14
:10080000D8A096D0D8B494D04AC000F0016A026A49
:10081000036A496A3FC048F0488E40C047F041C073
:1008200046F0190E4A6E4550465E0DE2010E475ED7
:100830000AE2485E08E2495E06E2492A482A472A57
:100840004550462628D04450475E12E2010E485ECD
:100850000FE2495E0DE2492A482A44504726455096
:10086000462619E3472A17E1482A15E1492A13D0F9
:1008700043508009485E0EE2010E495E0BE2492AB0
:1008800043508009482644504726E9E3482AE7E1D7
:10089000492AE5D703804A2E01D00BD0D89046369E
:1008A000473648364936D8900336023601364B363D
:1008B000BAD74BA006D0D8900132023203324B3265
:1008C00002D0000635E04BBE1ED0D89046364736E3
:1008D000483649364550465E07E2010E475E04E25F
:1008E000485E02E2495E1AE34450475E05E2010EAB
:1008F000485E02E2495E12E343508009485E03E22B
:10090000010E495E0BE3032A09E1022A07E1012AED
:1009100005E1002A0DE00132023203323FC04AF005
:1009200043504A1A4AAE02D0018E06D0019E04D02E
:10093000006A016A026A036A12008E0E006E575046
:10094000005E58C002F059C001F0028E005209E06A
:10095000D890025202E1015204E002320132002E2C
:10096000F7D758AE05D0011E021E012AD8B4022ABC
:1009700012003C6A3B6A3A6A7F0E396E7E0E436E05
:10098000800E446E456A466A7A0E476E2A0E486E9D
:10099000AA0E496EA30E4A6E750E4B6EB60E4C6EC5
:1009A000090E4D6EB40E4E6E6F0E4F6E4F0E506EA2
:1009B000B60E516EAA0E526E690E536E8B0E546EA9
:1009C000F60E556EE80E566E30C05AF02FC059F034
:1009D0002EC058F02DC057F05E6A5D6A5C6A5B6A93
:1009E000C4DE03E32E50800A2E6E30C05EF02FC0AE
:1009F0005DF02EC05CF02DC05BF0830E626FF90ECF
:100A0000616F220E606F7E0E5F6E7DDC03C05AF058
:100A100002C059F001C058F000C057F08EDF01C08D
:100A20003DF030C05EF02FC05DF02EC05CF02DC0F8
:100A30005BF0830E626FF90E616F220E606F7E0EA7
:100A40005F6E61DC03C05AF002C059F001C058F07B
:100A500000C057F05C6A3DC05BF0CEDCD8825AC063
:100A60005EF059C05DF058C05CF057C05BF003C049
:100A700062F002C061F001C060F000C05FF0D7DC3E
:100A800003C042F002C041F001C040F000C03FF09E
:100A9000030E3D163D5203E03D5002081AE142C0EC
:100AA0005EF041C05DF040C05CF03FC05BF0DB0E2B
:100AB000626F0F0E616F490E606F7F0E5F6E23DCF9
:100AC00003C038F002C037F001C036F000C035F086
:100AD00065D03D2C32D0D8825E6A5D6A5C6A7F0E3A
:100AE0005B6E42C062F041C061F040C060F03FC048
:100AF0005FF09DDC03C05AF002C059F001C058F00D
:100B000000C057F003C05EF002C05DF001C05CF0B1
:100B100000C05BF0DB0E626F0F0E616F490E606FFD
:100B20007F0E5F6E83EC01F003C038F002C037F037
:100B300001C036F000C035F031D0D88242C05EF03E
:100B400041C05DF040C05CF03FC05BF0626B616B28
:100B5000606B7F0E5F6E6BDC03C05AF002C059F011
:100B600001C058F000C057F003C05EF002C05DF055
:100B700001C05CF000C05BF0DB0E626F0F0E616FB6
:100B8000490E606F7F0E5F6E83EC01F003C038F09A
:100B900002C037F001C036F000C035F0346A336A65
:100BA000326A7F0E316E38C05EF037C05DF036C0FD
:100BB0005CF035C05BF038C062F037C061F036C021
:100BC00060F035C05FF083EC01F003C038F002C084
:100BD00037F001C036F000C035F03E6A3E500408E0
:100BE00062E33CC05EF03BC05DF03AC05CF039C0EF
:100BF0005BF038C062F037C061F036C060F035C0DD
:100C00005FF083EC01F003C03CF002C03BF001C098
:100C10003AF000C039F03E50040DF350036A430F20
:100C2000E96E000E0320EA6EEFCF57F0ECCF58F0DC
:100C3000ECCF59F0ECCF5AF05AC05EF059C05DF0DD
:100C400058C05CF057C05BF03CC062F03BC061F044
:100C50003AC060F039C05FF083EC01F0EACF58F0A1
:100C6000E9CF57F0D89234C05EF033C05DF032C0A7
:100C70005CF031C05BF003C062F002C061F001C003
:100C800060F000C05FF017EC02F058C0EAFF57C0F8
:100C9000E9FF03C034F002C033F001C032F000C0FD
:100CA00031F03E2A9BD73D50020802E03D2C03D094
:100CB0003250800A326E31C000F032C001F033C0D1
:100CC00002F034C003F01200D88228C05EF027C0C2
:100CD0005DF026C05CF025C05BF0DB0E626F0F0E8E
:100CE000616F490E606F7F0E5F6E17EC02F003C0FC
:100CF0002CF002C02BF001C02AF000C029F003C084
:100D000030F002C02FF001C02EF000C02DF031DE17
:100D100012002650B608266E036A27C02AF0278ED6
:100D2000D89027322832293203320232013200327F
:100D3000262EF6D72AAE0BD0001E011E021E031E61
:100D4000002AD8B4012AD8B4022AD8B4032A18EF4A
:100D500007F0D8B203D0EA6A2E0EE96E006A016A83
:100D6000026A036A2E6A2F6A306A316A2D502C108B
:100D70002B102A102CE0200E326ED8902636273603
:100D8000283629362E362F36303631362D50315C06
:100D900008E12C50305C05E12B502F5C02E12A5019
:100DA0002E5C0FE32A502E5E2B50D8A02B3C2F5EDA
:100DB0002C50D8A02C3C305E2D50D8A02D3C315E5C
:100DC000D8800036013602360336322ED6D72EC0F2
:100DD000EFFF2FC0ECFF30C0ECFF31C0ECFF120082
:100DE000E9501E6E1D50206E1AE01CC05EF01BC044
:100DF0005DF01AC05CF019C05BF0626B616B200E95
:100E0000606F820E5F6E83EC01F003C01CF002C0C5
:100E10001BF001C01AF000C019F0202EE6D71CC04C
:100E200029F01BC028F01AC027F019C026F071D78E
:100E300003C01CF002C01BF001C01AF000C019F082
:100E40001CAE0DD01E061E8A191E1A1E1B1E1C1E4D
:100E5000192AD8B41A2AD8B41B2AD8B41C2A3B0E93
:100E6000256E9A0E246ECA0E236E226A0A0E206E1A
:100E70001D50D8B41E2AD882EA6A190EE96E1CC029
:100E800029F01BC028F01AC027F019C026F025C091
:100E90002DF024C02CF023C02BF022C02AF059DF03
:100EA000015000520FE11D28205C0CE01E500CE0A8
:100EB0000F0B205C01E03BE21EBE39D01EBC04D00B
:100EC000200E30D0200E1E161EAA0DD01E9A1D50C8
:100ED000D8A41E0600501E6E2D0E266EDBEC00F010
:100EE0001E50006E1E6A1D50205C0BE100501E6EED
:100EF0002E0E266EDBEC00F01E50006E200E1E162D
:100F0000000E300E1EAA0ED01E9A1D50D8A41E062A
:100F100000501E6E2D0E266EDBEC00F01E50006E93
:100F20001E6A300E002600C026F0DBEC00F0D892DE
:100F300025C029F024C028F023C027F022C026F0C5
:100F40002D6A2C6A2B6A0A0E2A6E03DF03C025F075
:100F500002C024F001C023F000C022F0202E8BD765
:100F600012001CC030F01BC02FF01AC02EF019C0A8
:100F70002DF0FFDC03C020F002C01FF001C01EF006
:100F800000C01DF020C05AF01FC059F01EC058F01C
:100F90001DC057F05E6A5D6A5C6A5B6AB5EC03F07F
:100FA00009E1F60E006E400E016E970E026ECE0E37
:100FB000036E23D01CC028F01BC027F01AC026F0F7
:100FC00019C025F081DE03C024F002C023F001C067
:100FD00022F000C021F024C041F023C040F022C024
:100FE0003FF021C03EF020C045F01FC044F01EC0BD
:100FF00043F01DC042F0F0EC03F04FEF13F04490CB
:1010000038C03DF037C03CF036C03BF035C03AF058
:1010100038C05AF037C059F036C058F035C057F0D4
:101020005E6A5D6A5C6A5B6AB5EC03F004E3448067
:101030003B50800A3B6E3DC05AF03CC059F03BC06B
:1010400058F03AC057F05E6A5D6A5C6A8E0E5B6E5D
:10105000B5EC03F001E218E13DC05AF03CC059F094
:101060003BC058F03AC057F068DC02C05CF001C0E9
:101070005BF0FCEC01F003C041F002C040F001C0A5
:101080003FF000C03EF0C8D03DC05AF03CC059F01F
:101090003BC058F03AC057F0800E5E6E960E5D6E03
:1010A000180E5C6E960E5B6EB5EC03F0D8A0ACD05B
:1010B0003DC05EF03CC05DF03BC05CF03AC05BF010
:1010C000626B616B606B700E5F6E83EC01F003C04E
:1010D0005AF002C059F001C058F000C057F02DDCA2
:1010E00002C043F001C042F03DC05EF03CC05DF084
:1010F0003BC05CF03AC05BF0626B616B606B700E82
:101100005F6E83EC01F003C048F002C047F001C0FD
:1011100046F000C045F043C05CF042C05BF0FCEC20
:1011200001F0D88248C05EF047C05DF046C05CF078
:1011300045C05BF003C062F002C061F001C060F026
:1011400000C05FF017EC02F05E6A5D6A5C6A8E0EAA
:101150005B6E03C062F002C061F001C060F000C0CD
:101160005FF083EC01F003C03DF002C03CF001C031
:101170003BF000C03AF043C05CF042C05BF0FCECD6
:1011800001F05E6A5D6A5C6A8E0E5B6E03C062F09F
:1011900002C061F001C060F000C05FF083EC01F0BC
:1011A00003C041F002C040F001C03FF000C03EF07B
:1011B0003DC05AF03CC059F03BC058F03AC057F01F
:1011C0009DEC04F002C05CF001C05BF0FCEC01F0AF
:1011D000D89241C05EF040C05DF03FC05CF03EC0C0
:1011E0005BF003C062F002C061F001C060F000C0BB
:1011F0005FF017EC02F003C041F002C040F001C004
:101200003FF000C03EF008D03DC041F03CC040F08F
:101210003BC03FF03AC03EF03DC05AF03CC059F0F0
:101220003BC058F03AC057F09DEC04F002C05CF0AF
:1012300001C05BF0FCEC01F0D8823DC05EF03CC028
:101240005DF03BC05CF03AC05BF003C062F002C0EE
:1012500061F001C060F000C05FF017EC02F003C065
:101260003DF002C03CF001C03BF000C03AF044A0A9
:1012700003D03F50800A3F6E3DC05AF03CC059F049
:101280003BC058F03AC057F05E6A5D6A5C6A5B6AC0
:10129000B5EC03F038E044A01AD0395218E1D882F6
:1012A00041C05EF040C05DF03FC05CF03EC05BF00E
:1012B000626B616B606B7F0E5F6E17EC02F003C0B8
:1012C00041F002C040F001C03FF000C03EF044B029
:1012D0001AD0392C18D0D89241C05EF040C05DF0D1
:1012E0003FC05CF03EC05BF0626B616B606B7F0E79
:1012F0005F6E17EC02F003C041F002C040F001C085
:101300003FF000C03EF038C05AF037C059F036C048
:1013100058F035C057F05E6A5D6A5C6A5B6AB5EC8E
:1013200003F004E1416A406A3F6A3E6A3EC000F051
:101330003FC001F040C002F041C003F0120034C0D1
:1013400038F033C037F032C036F031C035F0010E1E
:10135000396E55DE14EF0AF034C038F033C037F080
:1013600032C036F031C035F0396A49DE38EF0AF064
:1013700028C05AF027C059F026C058F025C057F0B1
:101380005E6A5D6A5C6A5B6AB5EC03F0D8B49ED0B5
:1013900024C041F023C040F022C03FF021C03EF005
:1013A00028C045F027C044F026C043F025C042F0D5
:1013B000F0EC03F003C030F002C02FF001C02EF0BB
:1013C00000C02DF003C05AF002C059F001C058F01F
:1013D00000C057F05E6A5D6A5C6A5B6AB5EC03F058
:1013E00024E324C041F023C040F022C03FF021C0DC
:1013F0003EF028C045F027C044F026C043F025C089
:1014000042F0F0EC03F003C030F002C02FF001C056
:101410002EF000C02DF003C034F002C033F001C044
:1014200032F000C031F08BD723D024C041F023C06C
:1014300040F022C03FF021C03EF028C045F027C058
:1014400044F026C043F025C042F0F0EC03F003C0A6
:1014500030F002C02FF001C02EF000C02DF003C00C
:1014600034F002C033F001C032F000C031F074D764
:1014700003C02CF002C02BF001C02AF000C029F0FC
:101480002CC05EF02BC05DF02AC05CF029C05BF080
:1014900028C062F027C061F026C060F025C05FF070
:1014A00083EC01F0D88224C05EF023C05DF022C03E
:1014B0005CF021C05BF003C062F002C061F001C0CB
:1014C00060F000C05FF017EC02F000D012008E0E4A
:1014D000006E3CC001F03BC002F0036A3CAE05D098
:1014E000011E021E022A01E1012A015209E102C085
:1014F00001F0026A080E005E015202E1006A0AD0A1
:10150000D89001BE04D0023601360006F9D73CBEA1
:1015100001D0019E120028C02CF027C02BF026C05D
:101520002AF025C029F02CC05AF02BC059F02AC04F
:1015300058F029C057F05E6A5D6A5C6A7F0E5B6E88
:10154000B5EC03F0D8B488D13B6A290EE96E3BC0F4
:10155000EAFF7E0EEF6ED8822CC05EF02BC05DF0ED
:101560002AC05CF029C05BF0626B616B606B7F0E20
:101570005F6E17EC02F003C03DF002C03CF001C00A
:101580003BF000C03AF0D8922CC05EF02BC05DF06A
:101590002AC05CF029C05BF0626B616B606B7F0EF0
:1015A0005F6E17EC02F03DC041F03CC040F03BC024
:1015B0003FF03AC03EF003C045F002C044F001C025
:1015C00043F000C042F0F0EC03F003C02CF002C086
:1015D0002BF001C02AF000C029F02CC05EF02BC017
:1015E0005DF02AC05CF029C05BF02CC062F02BC01B
:1015F00061F02AC060F029C05FF083EC01F003C005
:1016000038F002C037F001C036F000C035F0990E56
:101610005E6E470E5D6E8A0E5C6E7F0E5B6E38C02E
:1016200062F037C061F036C060F035C05FF083EC27
:1016300001F003C03DF002C03CF001C03BF000C02F
:101640003AF0D89203C05EF002C05DF001C05CF0D9
:1016500000C05BF0626B616B606B800E5F6E17ECBD
:1016600002F003C030F002C02FF001C02EF000C025
:101670002DF04C0E5E6EF30E5D6E3A0E5C6E7B0EC0
:101680005B6E38C062F037C061F036C060F035C0C4
:101690005FF083EC01F003C03DF002C03CF001C0FC
:1016A0003BF000C03AF0D89203C05EF002C05DF09B
:1016B00001C05CF000C05BF02B0E626F9D0E616F8D
:1016C000DF0E606F7E0E5F6E17EC02F003C034F029
:1016D00002C033F001C032F000C031F034C05EF01F
:1016E00033C05DF032C05CF031C05BF038C062F0F6
:1016F00037C061F036C060F035C05FF083EC01F0B8
:1017000003C03DF002C03CF001C03BF000C03AF025
:10171000D89203C05EF002C05DF001C05CF000C072
:101720005BF0626B616B606B7F0E5F6E17EC02F0BB
:1017300003C034F002C033F001C032F000C031F019
:101740002CC05EF02BC05DF02AC05CF029C05BF0BD
:1017500030C062F02FC061F02EC060F02DC05FF08D
:1017600083EC01F003C03DF002C03CF001C03BF04F
:1017700000C03AF003C041F002C040F001C03FF0A9
:1017800000C03EF034C045F033C044F032C043F0F6
:1017900031C042F0F0EC03F003C030F002C02FF093
:1017A00001C02EF000C02DF03B6A250EE96E3BC053
:1017B000EAFF7E0EEF5C396E39AE12D0000ED88093
:1017C00039543C6A3B6E3BBE3C0681DE00C031F0C2
:1017D0000150800A326E02C033F003C034F00ED0E4
:1017E0003C6A39C03BF03BBE3C0671DE03C034F0BE
:1017F00002C033F001C032F000C031F034C05EF0FE
:1018000033C05DF032C05CF031C05BF0180E626F27
:10181000720E616F310E606F7E0E5F6E83EC01F0B1
:10182000D89230C05EF02FC05DF02EC05CF02DC0AD
:101830005BF003C062F002C061F001C060F000C064
:101840005FF017EC02F003C030F002C02FF001C0CF
:101850002EF000C02DF004D0306A2F6A2E6A2D6A57
:101860002DC000F02EC001F02FC002F030C003F0F8
:10187000120028C05EF027C05DF026C05CF025C0D5
:101880005BF03B0E626FAA0E616F380E606F7F0EC9
:101890005F6E83EC01F003C05AF002C059F001C042
:1018A00058F000C057F09DEC04F001C035F03690C0
:1018B00028C02CF027C02BF026C02AF025C029F024
:1018C00028C05AF027C059F026C058F025C057F05C
:1018D0005E6A5D6A5C6A5B6AB5EC03F005E33680BC
:1018E000356C2A50800A2A6E306A2F6A2E6A2D6A59
:1018F000386A2D0EE96E38C0EAFF7F0E3524EF6E90
:101900002CC05EF02BC05DF02AC05CF029C05BF0FB
:101910003B0E626FAA0E616F380E606F7F0E5F6EB6
:1019200083EC01F003C03AF002C039F001C038F096
:1019300000C037F03C6A35C03BF03BBE3C06C7DD1B
:10194000D8823AC05EF039C05DF038C05CF037C074
:101950005BF003C062F002C061F001C060F000C043
:101960005FF017EC02F003C02CF002C02BF001C0B6
:101970002AF000C029F07C0E5E6E880E5D6E590E56
:101980005C6E720E5B6E2CC062F02BC061F02AC0E0
:1019900060F029C05FF083EC01F003C03AF002C0B0
:1019A00039F001C038F000C037F0D89203C05EF0C3
:1019B00002C05DF001C05CF000C05BF0E00E626F41
:1019C000970E616F260E606F750E5F6E17EC02F05A
:1019D00003C034F002C033F001C032F000C031F077
:1019E00034C05EF033C05DF032C05CF031C05BF0FB
:1019F0002CC062F02BC061F02AC060F029C05FF0FB
:101A000083EC01F003C03AF002C039F001C038F0B5
:101A100000C037F0D89203C05EF002C05DF001C094
:101A20005CF000C05BF0C40E626F1D0E616F1E0E95
:101A3000606F780E5F6E17EC02F003C034F002C0E6
:101A400033F001C032F000C031F034C05EF033C07A
:101A50005DF032C05CF031C05BF02CC062F02BC096
:101A600061F02AC060F029C05FF083EC01F003C090
:101A70003AF002C039F001C038F000C037F0D89217
:101A800003C05EF002C05DF001C05CF000C05BF01E
:101A90005E0E626F500E616F630E606F7A0E5F6E46
:101AA00017EC02F003C034F002C033F001C032F092
:101AB00000C031F034C05EF033C05DF032C05CF085
:101AC00031C05BF02CC062F02BC061F02AC060F026
:101AD00029C05FF083EC01F003C03AF002C039F096
:101AE00001C038F000C037F0D89203C05EF002C0E9
:101AF0005DF001C05CF000C05BF01A0E626FFE0E7C
:101B0000616F750E606F7C0E5F6E17EC02F003C0A4
:101B100034F002C033F001C032F000C031F034C004
:101B20005EF033C05DF032C05CF031C05BF02CC0C1
:101B300062F02BC061F02AC060F029C05FF083EC36
:101B400001F003C03AF002C039F001C038F000C023
:101B500037F0D89203C05EF002C05DF001C05CF0C7
:101B600000C05BF0180E626F720E616F310E606F15
:101B70007E0E5F6E17EC02F003C034F002C033F04B
:101B800001C032F000C031F02CC05EF02BC05DF01F
:101B90002AC05CF029C05BF034C062F033C061F051
:101BA00032C060F031C05FF083EC01F0D8925E6A21
:101BB0005D6A5C6A7F0E5B6E03C062F002C061F01A
:101BC00001C060F000C05FF017EC02F030C05EF0C2
:101BD0002FC05DF02EC05CF02DC05BF003C062F042
:101BE00002C061F001C060F000C05FF083EC01F062
:101BF00003C030F002C02FF001C02EF000C02DF065
:101C000036A017D0416A406A3F6A7F0E3E6E30C0F0
:101C100045F02FC044F02EC043F02DC042F0F0EC50
:101C200003F003C030F002C02FF001C02EF000C05E
:101C30002DF02DC000F02EC001F02FC002F030C0FA
:101C400003F012001CC05AF01BC059F01AC058F023
:101C500019C057F05E6A5D6A5C6A5B6AB5EC03F0B6
:101C6000D8A0CDD020C024F01FC023F01EC022F089
:101C70001DC021F0286A276A266A7F0E256EB8ECFF
:101C800009F003C024F002C023F001C022F000C01C
:101C900021F003C05AF002C059F001C058F000C052
:101CA00057F05E6A5D6A5C6A5B6AB5EC03F0D8A4C3
:101CB000A6D020C024F01FC023F01EC022F01DC0FB
:101CC00021F0286A276A266A800E256EB8EC09F092
:101CD00003C024F002C023F001C022F000C021F0B4
:101CE00003C05AF002C059F001C058F000C057F0CC
:101CF0005E6A5D6A5C6A5B6AB5EC03F03FE119C03D
:101D000021F01A50800A226E1BC023F01CC024F060
:101D10001CC028F01BC027F0266E19C025F08BECE4
:101D20000AF003C024F002C023F001C022F000C07A
:101D300021F003C05EF002C05DF001C05CF000C0A5
:101D40005BF020C062F01FC061F01EC060F01DC0DB
:101D50005FF083EC01F003C024F002C023F001C067
:101D600022F000C021F003C028F002C027F001C01B
:101D700026F000C025F07DDDD1D040D019C021F083
:101D80001A50800A226E1BC023F01CC024F01CC015
:101D900028F01BC027F0266E19C025F08BEC0AF046
:101DA00003C024F002C023F001C022F000C021F0E3
:101DB00003C05EF002C05DF001C05CF000C05BF0EB
:101DC00020C062F01FC061F01EC060F01DC05FF057
:101DD00083EC01F003C024F002C023F001C022F024
:101DE00000C021F003C028F002C027F001C026F097
:101DF00000C025F03EDD800E011A90D08FD01CC0AF
:101E00005AF01BC059F01AC058F019C057F05E6A5A
:101E10005D6A5C6A5B6AB5EC03F02CE320C024F0D9
:101E20001FC023F01EC022F01DC021F0286A276ABF
:101E3000266A7F0E256EB8EC09F003C024F002C0BC
:101E400023F001C022F000C021F003C05AF002C00C
:101E500059F001C058F000C057F05E6A5D6A5C6AD4
:101E60005B6AB5EC03F006E0006A016A026A036A85
:101E700055D054D01CC05AF01BC059F01AC058F0AD
:101E800019C057F05E6A5D6A5C6A5B6AB5EC03F084
:101E900010E120C05AF01FC059F01EC058F01DC0FC
:101EA00057F05E6A5D6A5C6A5B6AB5EC03F001E25A
:101EB00035E11CC028F01BC027F01AC026F019C05D
:101EC00025F08BEC0AF003C024F002C023F001C01F
:101ED00022F000C021F003C05EF002C05DF001C03E
:101EE0005CF000C05BF020C062F01FC061F01EC05B
:101EF00060F01DC05FF083EC01F003C024F002C06D
:101F000023F001C022F000C021F003C028F002C07D
:101F100027F001C026F000C025F0ABDC0DEF14F077
:101F2000F86AD09E086A096A0D6A0C6A0B6A0A6A26
:101F3000116A106A0F6A0E6A156A146A136A126AC5
:101F4000C150C00B0F09C16E070EB46E0590046A34
:101F50000590066A076A8CEF00F0C8EF00F0F19E6A
:101F6000186A240EF66E000EF76E03EC01F013EC07
:101F700001F001C016F0300E165C176E16525BE0D1
:101F80001650440858E016502A0855E016504108EB
:101F900052E0165042084FE0165043084CE01650ED
:101FA000230849E00DC05EF00CC05DF00BC05CF092
:101FB0000AC05BF0626B616B200E606F820E5F6E19
:101FC00083EC01F003C01CF002C01BF001C01AF04A
:101FD00000C019F05C6A17C05BF0FCEC01F0D8920D
:101FE0001CC05EF01BC05DF01AC05CF019C05BF055
:101FF00003C062F002C061F001C060F000C05FF099
:1020000017EC02F003C00DF002C00CF001C00BF0A1
:1020100000C00AF0082A08C027F0020E286ECAEC99
:1020200000F017C019F0180E1A6E60EC03F0050EE0
:10203000276E2AEC00F01650230821E10DC05AF05B
:102040000CC059F00BC058F00AC057F05E6A400E41
:102050005D6E1A0E5C6E890E5B6EB5EC03F00FE1DF
:10206000086A0D6A0C6A0B6A0A6A116A106A0F6ABA
:102070000E6A156A146A136A126A010E186E182C19
:1020800076D70C0E266EDBEC00F0340EF66E000EEA
:10209000F76E03EC01F0020E196E960E276E2AEC15
:1020A00000F0192EFAD70C0E266EDBEC00F013ECC4
:1020B00001F001C016F0300E165C176E16525BE090
:1020C0001650440858E016502A0855E016504108AA
:1020D00052E0165042084FE0165043084CE01650AC
:1020E000230849E00DC05EF00CC05DF00BC05CF051
:1020F0000AC05BF0626B616B200E606F820E5F6ED8
:1021000083EC01F003C01CF002C01BF001C01AF008
:1021100000C019F05C6A17C05BF0FCEC01F0D892CB
:102120001CC05EF01BC05DF01AC05CF019C05BF013
:1021300003C062F002C061F001C060F000C05FF057
:1021400017EC02F003C00DF002C00CF001C00BF060
:1021500000C00AF0082A08C027F0010E286ECAEC59
:1021600000F017C019F0180E1A6E60EC03F0050E9F
:10217000276E2AEC00F016502A0811E1086A0D6A51
:102180000C6A0B6A0A6A116A106A0F6A0E6A156A8B
:10219000146A136A126A0C0E266EDBEC00F01650FD
:1021A0004408D8A4E4D0082A010E096E3C0EF66E4D
:1021B000000EF76E03EC01F013EC01F001C016F015
:1021C000300E165C176E16525BE01650440858E04D
:1021D00016502A0855E01650410852E016504208A1
:1021E0004FE0165043084CE01650230849E011C058
:1021F0005EF010C05DF00FC05CF00EC05BF0626B73
:10220000616B200E606F820E5F6E83EC01F003C085
:102210001CF002C01BF001C01AF000C019F05C6A8B
:1022200017C05BF0FCEC01F0D8921CC05EF01BC044
:102230005DF01AC05CF019C05BF003C062F002C030
:1022400061F001C060F000C05FF017EC02F003C065
:1022500011F002C010F001C00FF000C00EF0082A0B
:1022600008C027F0010E286ECAEC00F017C019F064
:10227000180E1A6E60EC03F0050E276E2AEC00F0C3
:10228000165023085CE10DC05EF00CC05DF00BC081
:102290005CF00AC05BF0DB0E626F0F0E616F490EDF
:1022A000606F800E5F6E83EC01F003C01CF002C013
:1022B0001BF001C01AF000C019F003C041F002C0C9
:1022C00040F001C03FF000C03EF0456A446A340E61
:1022D000436E860E426EF0EC03F003C015F002C0B0
:1022E00014F001C013F000C012F015C028F014C0A3
:1022F00027F013C026F012C025F064EC06F003C0EE
:1023000015F002C014F001C013F000C012F0010E6D
:10231000276E020E286ECAEC00F0890EE96E15C019
:102320001CF014C01BF013C01AF012C019F0060EF6
:102330001D6EF0EC06F0050E276E2AEC00F016502C
:102340002A0812E1096A086A0D6A0C6A0B6A0A6AAD
:10235000116A106A0F6A0E6A156A146A136A126AA1
:102360000C0E266EDBEC00F0092C01D025D71650A0
:102370004108D8A4E4D0082A010E096E400EF66E7A
:10238000000EF76E03EC01F013EC01F001C016F043
:10239000300E165C176E16525BE01650440858E07B
:1023A00016502A0855E01650410852E016504208CF
:1023B0004FE0165043084CE01650230849E011C086
:1023C0005EF010C05DF00FC05CF00EC05BF0626BA1
:1023D000616B200E606F820E5F6E83EC01F003C0B4
:1023E0001CF002C01BF001C01AF000C019F05C6ABA
:1023F00017C05BF0FCEC01F0D8921CC05EF01BC073
:102400005DF01AC05CF019C05BF003C062F002C05E
:1024100061F001C060F000C05FF017EC02F003C093
:1024200011F002C010F001C00FF000C00EF0082A39
:1024300008C027F0010E286ECAEC00F017C019F092
:10244000180E1A6E60EC03F0050E276E2AEC00F0F1
:10245000165023085CE10DC05EF00CC05DF00BC0AF
:102460005CF00AC05BF0DB0E626F0F0E616F490E0D
:10247000606F800E5F6E83EC01F003C01CF002C041
:102480001BF001C01AF000C019F003C041F002C0F7
:1024900040F001C03FF000C03EF0456A446A340E8F
:1024A000436E860E426EF0EC03F003C015F002C0DE
:1024B00014F001C013F000C012F015C030F014C0C9
:1024C0002FF013C02EF012C02DF0B9EC04F003C0B1
:1024D00015F002C014F001C013F000C012F0010E9C
:1024E000276E020E286ECAEC00F0890EE96E15C048
:1024F0001CF014C01BF013C01AF012C019F0060E25
:102500001D6EF0EC06F0050E276E2AEC00F016505A
:102510002A0812E1096A086A0D6A0C6A0B6A0A6ADB
:10252000116A106A0F6A0E6A156A146A136A126ACF
:102530000C0E266EDBEC00F0092C01D025D71650CE
:102540004208D8A4E4D0082A010E096E440EF66EA3
:10255000000EF76E03EC01F013EC01F001C016F071
:10256000300E165C176E16525BE01650440858E0A9
:1025700016502A0855E01650410852E016504208FD
:102580004FE0165043084CE01650230849E011C0B4
:102590005EF010C05DF00FC05CF00EC05BF0626BCF
:1025A000616B200E606F820E5F6E83EC01F003C0E2
:1025B0001CF002C01BF001C01AF000C019F05C6AE8
:1025C00017C05BF0FCEC01F0D8921CC05EF01BC0A1
:1025D0005DF01AC05CF019C05BF003C062F002C08D
:1025E00061F001C060F000C05FF017EC02F003C0C2
:1025F00011F002C010F001C00FF000C00EF0082A68
:1026000008C027F0010E286ECAEC00F017C019F0C0
:10261000180E1A6E60EC03F0050E276E2AEC00F01F
:10262000165023085CE10DC05EF00CC05DF00BC0DD
:102630005CF00AC05BF0DB0E626F0F0E616F490E3B
:10264000606F800E5F6E83EC01F003C01CF002C06F
:102650001BF001C01AF000C019F003C041F002C025
:1026600040F001C03FF000C03EF0456A446A340EBD
:10267000436E860E426EF0EC03F003C015F002C00C
:1026800014F001C013F000C012F015C01CF014C00B
:102690001BF013C01AF012C019F0B1EF07F003C01D
:1026A00015F002C014F001C013F000C012F0010ECA
:1026B000276E020E286ECAEC00F0890EE96E15C076
:1026C0001CF014C01BF013C01AF012C019F0060E53
:1026D0001D6EF0EC06F0050E276E2AEC00F0165089
:1026E0002A0812E1096A086A0D6A0C6A0B6A0A6A0A
:1026F000116A106A0F6A0E6A156A146A136A126AFE
:102700000C0E266EDBEC00F0092C01D025D71650FC
:102710004308D8A4BAD0082A010E096E480EF66EF6
:10272000000EF76E03EC01F013EC01F001C016F09F
:10273000300E165C176E16525BE01650440858E0D7
:1027400016502A0855E01650410852E0165042082B
:102750004FE0165043084CE01650230849E011C0E2
:102760005EF010C05DF00FC05CF00EC05BF0626BFD
:10277000616B200E606F820E5F6E83EC01F003C010
:102780001CF002C01BF001C01AF000C019F05C6A16
:1027900017C05BF0FCEC01F0D8921CC05EF01BC0CF
:1027A0005DF01AC05CF019C05BF003C062F002C0BB
:1027B00061F001C060F000C05FF017EC02F003C0F0
:1027C00011F002C010F001C00FF000C00EF0082A96
:1027D00008C027F0010E286ECAEC00F017C019F0EF
:1027E000180E1A6E60EC03F0050E276E2AEC00F04E
:1027F0001650230832E10DC01CF00CC01BF00BC0BA
:102800001AF00AC019F0AB0E206EAA0E1F6E2A0E27
:102810001E6E7D0E1D6E22EF0EF003C015F002C07D
:1028200014F001C013F000C012F0010E276E020E6A
:10283000286ECAEC00F0890EE96E15C01CF014C0B9
:102840001BF013C01AF012C019F0030E1D6EF0EC4D
:1028500006F0050E276E2AEC00F016502A0812E149
:10286000096A086A0D6A0C6A0B6A0A6A116A106AB8
:102870000F6A0E6A156A146A136A126A0C0E266EC3
:0E288000DBEC00F0092C01D04FD711D403007F
:020000040030CA
:0E0000003FCC3E1E0087A1000FC00FE00F4056
:00000001FF
;PIC18F4550
;CRC=AE37  CREATED="28-nov.-20 00:40"
